:020000040800F2
:1000000008050020050100087315000859110008B3
:100010007115000871010008171C0008000000009D
:10002000000000000000000000000000391A000875
:100030007301000800000000291900083B1A00089D
:100040001F0100081F0100081F0100081F01000810
:100050001F0100081F0100081F0100081F01000800
:100060001F0100081F0100081F0100081F010008F0
:100070001F0100081F0100081F0100081F010008E0
:100080001F0100081F0100081F0100081F010008D0
:100090001F0100081F0100081F0100081F010008C0
:1000A0001F0100081F0100081F0100081F010008B0
:1000B0001F0100081F0100081F0100081F010008A0
:1000C0001F0100081F0100081F0100081F01000890
:1000D0001F0100081F0100081F0100081F01000880
:1000E0001F0100081F0100081F010008DFF810D0E1
:1000F00000F02CF800480047651D0008AFF30080B1
:10010000080500200648804706480047FEE7FEE74E
:10011000FEE7FEE7FEE7FEE7FEE7FEE7FEE7FEE7B7
:100120009D1A0008ED000008D2B201E000F8012B92
:10013000491EFBD270470022F6E710B513460A4667
:1001400004461946FFF7F0FF204610BD064C074D48
:1001500006E0E06840F0010394E807009847103497
:10016000AC42F6D3FFF7C6FF382E0008582E000821
:10017000FEE7704772B6FEE770B5044600F004F97A
:100180000546601C02D004480078044400F0FCF8E6
:10019000401BA042FAD370BD000000202DE9F84FAB
:1001A000DFF8B8910024A9F1040B23460F2709F1C9
:1001B000040AABF1040EC9E00125A5402A40AA4279
:1001C0007DD1674ED1F804C0ACEB0608B44532D0FF
:1001D00014DCBCF1030F3AD009DCBCF1000F2AD0CB
:1001E000BCF1010F1CD0BCF1020F31D11DE0BCF1FC
:1001F000110F17D0BCF1120F2AD119E0B8F5881FE2
:1002000019D006DCB8F5803F15D0B8F5801F1FD196
:1002100011E0B8F5001F0ED0B8F5041F18D10AE0A0
:10022000CB6815E0CB681B1D12E0CB6808330FE0EC
:10023000CB680C330CE08B682BB1012B4FF008031B
:1002400003D0456104E0042302E0056100E00023DF
:10025000FF2A01D8064601E000F104064FEA8405B2
:1002600001D9A5F12005D6F8008007FA05FC28EA97
:100270000C0803FA05F548EA0508C6F800804D6841
:10028000ED0062D5374DAE6946F00106AE61AD694D
:1002900024F0030605F001050095334D06EB050C2F
:1002A000DCF80850A607360F07FA06F825EA080515
:1002B000DFF8B880404503D14FF0000817E044E074
:1002C000DFF8AC80404502D14FF001080FE0DFF8C5
:1002D000A480404502D14FF0020808E0DFF8988082
:1002E000404502D14FF0030801E04FF0040808FA3E
:1002F00006F848EA0508CCF808804D68D9F800608F
:10030000ED024D4601D5164300E096432E604D6840
:10031000DAF80060AD02554601D5164300E0964379
:100320002E604D68DBF80060AD035D4601D51643D5
:1003300000E096432E604D68DEF80060ED037546E0
:1003400001D5164300E096432E60641C0D682A46D2
:10035000E5407FF431AFBDE8F88F000008040140AC
:100360000000111000100240000001400008014090
:10037000000C014000100140001401400AB101616D
:1003800070470904FBE700000148806870470000DF
:100390000000002070B5040025D094F83D00002531
:1003A00020B984F83C50204600F050F9242084F80D
:1003B0003D002068016821F00101016020680168AA
:1003C00041F4004101602068016821F400410160AE
:1003D00000F094FA4D4A6168914201D84C4900E01E
:1003E0004C49884201D2012070BD4B492368B0FBC3
:1003F000F1F15E6826F03F060E435E60636893424B
:1004000006D94FF4967359434FF47A73B1FBF3F165
:100410002368491C1E6A26F03F0631431962616851
:10042000914210D84900401EB0FBF1F2521CC2F3B9
:100430000B02042A01D2042022E0B0FBF1F0401CA0
:10044000C0F30B001CE0A268F2B301EBC10303EBA5
:100450000116431EB3FBF6F35B1C43F480431B05FC
:1004600049D092B301EBC10202EB0111401EB0FB77
:10047000F1F0401CC0F30B0040F4804040F4004019
:100480002168CA694CF6FF739A431043C861D4E9E6
:10049000071001432068026822F0C0021143016086
:1004A000D4E9030101432068826848F2FF339A438C
:1004B00011438160D4E9050108432168CA6822F02C
:1004C000FF021043C86001E00EE016E020680168FA
:1004D00041F0010101602564202084F83D0025637E
:1004E00084F83E50002070BD01EB4106431EB3FB73
:1004F000F6F35B1CB3E70120C2E701EB4101401EAC
:10050000B0FBF1F0401CC0F30B00B7E7A086010080
:1005100080841E0000093D0040420F002DE9FF4F7E
:1005200083B09A46DDE9119793460446DDF8408092
:10053000FFF72AFF054694F83D0020287FD11923B4
:10054000012240492046009500F09EFE002876D109
:1005500094F83C00012872D0012084F83C00206807
:100560000168C90703D1016841F0010101602068F9
:10057000016821F400610160212084F83D004020E1
:1005800084F83E0000262664C4F82480A4F82A904B
:10059000608D20852C48E062CDE9007553465A46AF
:1005A0002046049900F0F0FD70B930E02A46394643
:1005B000204600F00FFF58B1206C042804D12068B9
:1005C000016841F400710160012007B0BDE8F08FBF
:1005D000606A216800780861606A401C6062218D51
:1005E000491E89B22185628D521E62852268536937
:1005F000DB435B070BD469B100781061606A401C73
:100600006062208D401E2085608D401E6085208D9B
:100610000028CBD12A463946204600F009FE0028A2
:10062000CAD154F83D0B016841F4007101602020EB
:1006300004F81E09E67766770020C6E7FFE7022088
:10064000C3E70000020010000000FFFF10B586B0F5
:1006500000210091019102910391006813498842A1
:1006600022D1134CA06940F00800A061A06969463E
:1006700000F0080004904FF44070009012200190A8
:10068000032003900B48FFF789FD0B48416841F0B8
:10069000E06141F002014160E06940F40010E06176
:1006A000E06900F40010049006B010BD0054004052
:1006B00000100240000C0140000001400248816827
:1006C000027811448160704700000020074810B58F
:1006D000016841F010010160032000F067F80F206D
:1006E00000F006F800F024F8002010BD00200240C1
:1006F00070B50D4D04464FF47A712878B1FBF0F0D7
:100700000A490968B1FBF0F000F058FC48B9102C18
:1007100007D200222146501E00F028F800206C600D
:1007200070BD012070BD0000000000200C00002002
:100730000C4808B5816941F001018161816901F0CE
:1007400001010091C16941F08051C161C06900F0AF
:10075000805000900448416821F0E06141F0007150
:10076000416008BD0010024000000140F0B40E4B93
:100770001B680C46C3F30223C3F10705042D00D9FF
:100780000425191D072901D2002300E0DB1E0126E4
:1007900006FA05F1491E214099409E40761E1640FA
:1007A0003143F0BC01F048BA0CED00E0064900F01E
:1007B000070208684FF6FF03184040EA0220034A88
:1007C00010430860704700000CED00E00000FA05DF
:1007D0002DE9F0470F46050061D0434E306800F028
:1007E0000700B84209D2306820F007003843306073
:1007F000306800F00700B84251D128683B4C8107AF
:1008000012D5400703D5606840F4E0606060287846
:10081000000703D5606840F4605060606068A968B4
:1008200020F0F000084360602878C00728D068688E
:10083000012810D02168022810D0890700292EDA5B
:10084000616821F0030101436160FFF79DFD80466F
:1008500041F288390DE021688903EFE78901EDE76E
:10086000FFF792FDA0EB0801494502D90320BDE83E
:10087000F0876068696800F00C00B0EB810FEFD181
:10088000306800F00700B8420BD9306820F007004C
:1008900038433060306800F00700B84201D00120D2
:1008A000E5E72878400705D56068E96820F4E0604E
:1008B000084360602878000706D56068296920F43D
:1008C000605040EAC100606000F038F86168084A92
:1008D000C1F30311515CC84006490860064800682E
:1008E000FFF706FF0020C2E7002002400010024090
:1008F000661E00080C000020040000200448054982
:1009000000684968044AC1F30221515CC84070473D
:100910000C00002000100240761E00080448054923
:1009200000684968044AC1F3C221515CC84070475D
:100930000C00002000100240761E00080E4A51688C
:100940000E4801F00C03042B11D0082B0FD10C48DA
:10095000C1F38343C903C05C0AD55168084AC1F397
:100960004041921E515C054A5043B0FBF1F0704784
:1009700004494843704700000010024000127A000A
:10098000561E000800093D002DE9F84F040070D004
:100990002078C04DC00749D06868C0F381000128A5
:1009A00007D06868C0F38100022809D16868C003D5
:1009B00006D52868800339D560680028E7D035E07F
:1009C0006068B0F5803F0BD010B1B0F5A02F11D00A
:1009D000286820F480302860286820F4802002E015
:1009E000286840F480302860606890B1FFF7CCFC44
:1009F00006460AE0286840F480202860F0E700BF3F
:100A0000FFF7C2FC801B642873D828688003F7D5E1
:100A10000CE0FFF7B9FC064605E000BFFFF7B4FCA9
:100A2000801B6428F0D828688003F7D420789A4E79
:100A300080074FF001094FF0000839D5686810F0C1
:100A40000C0F07D06868C0F38100022809D16868DC
:100A5000C00306D42868800714D52069012808D16E
:100A600010E02069B0B1C6F80090FFF78DFC074692
:100A700005E00AE1FFF788FCC01B0228C4D82868FB
:100A80008007F7D52868616920F0F80040EAC100C6
:100A900028600DE0C6F80080FFF776FC074604E00A
:100AA000FFF772FCC01B022823D828688007F7D400
:100AB000207800072CD57948A169D9B1C0F80090F9
:100AC000FFF762FC074604E0FFF75EFCC01B02284C
:100AD0000FD8686A8007F7D571484FF4FA5100685B
:100AE000B0FBF1F0009000BF0098411E0091FAD2D7
:100AF0000EE080E0C0F80080FFF746FC074604E007
:100B0000FFF742FCC01B022875D8686A8007F7D43B
:100B10002078400760D5E8690027C00008D4E8695C
:100B200040F08050E861E869012700F080500090B3
:100B30005C480168C90513D40168834641F480719B
:100B40000160FFF721FC824606E000BFFFF71CFCB6
:100B5000A0EB0A0064284ED8DBF80000C005F5D5EC
:100B6000E06801280AD008B1052813D0286A20F0CF
:100B700001002862286A20F0040002E0286A40F0A0
:100B800001002862E06841F2883B98B1FFF7FCFB66
:100B900082460BE0286A40F004002862EEE700BFBE
:100BA000FFF7F2FBA0EB0A0159455AD8286A8007E3
:100BB000F6D50CE0FFF7E8FB824605E0FFF7E4FB23
:100BC000A0EB0A0159454CD8286A8007F6D41FB11A
:100BD000E86920F08050E861E06988B36968C1F392
:100BE0008101022944D00228C6F8608004D0FFF7B2
:100BF000CBFB044638E034E0FFF7C6FB074604E0D1
:100C0000FFF7C2FBC01B02282BD828688001F7D44D
:100C1000206AB0F5803F05D16868A16820F40030F3
:100C200008436860D4E908010843696821F4741135
:100C300008436860C6F86090FFF7A6FB044606E02C
:100C400025E000BFFFF7A0FB001B022809D8286899
:100C50008001F7D51BE000BFFFF796FB001B0228C1
:100C600002D90320BDE8F88F28688001F4D40EE093
:100C70000128F7D06868226A00F48031914204D1DB
:100C8000616A00F47010884201D00120EAE7002078
:100C9000E8E70000001002400000424280044242A7
:100CA0000C0000200070004070B5040009D0606A9C
:100CB000002540B125616561A56294F8510040B1FD
:100CC0000CE0012070BD6068B0F5827FF4D0E56172
:100CD000F2E784F85050204600F040F8022084F8F3
:100CE00051002068016821F040010160A08821893D
:100CF00000F4827001F404410843A18901F4006109
:100D00000843217C01F002010843217D01F001012B
:100D10000843218B01F400710843217F01F0380161
:100D2000084394F8201001F080010843218D01F45C
:100D30000051084321680860A069042101EA1040BD
:100D4000216848602068C16921F40061C16165655E
:100D5000012084F85100002070BD000030B585B03E
:100D6000002400940194029403940068144988427A
:100D700023D11448816941F480518161816901F472
:100D800080510491816941F00401816180690E4DB7
:100D900000F004000490A0200090022001900320A5
:100DA000039069462846FFF7F9F94020CDE9000491
:100DB000694628460294FFF7F1F905B030BD0000FE
:100DC0000030014000100240000801402DE9FF4FB3
:100DD00081B01D46934604464FF001090E9EFFF771
:100DE000D3FA074694F851006168012806D0B1F59E
:100DF000827F3CD1A168C9BB042838D10298002861
:100E000071D0BBF1000FFBD0002DF9D094F8500049
:100E100001282CD04FF0010A84F850A094F851001A
:100E2000042802D0052084F851004FF00008C4F8CF
:100E30005480C4F838B0E587A58702992163E58618
:100E4000A586C4F84080C4F844802068016849063B
:100E500003D4016841F040010160E068B0F5006F23
:100E6000606808D0F0B3012D49D081E0FFE702208F
:100E700005B0BDE8F08F08B1012D39D1206B216894
:100E80000088C860206B801C2063E08E401EE086D6
:100E90002EE02068816889070FD5E18E69B1B9F12C
:100EA000010F0AD1216B0988C160206B801C20636F
:100EB000E08E401EE0864FF0000920688168C90777
:100EC0000CD0E18F51B1C068A16B0880A06B801C71
:100ED000A063E08F401EE0874FF00109FFF754FA4E
:100EE000C01B01E00BE067E0B04201D3701C50D1A1
:100EF000E08E0028CDD1E08F0028CAD13EE0206BE3
:100F0000216800780873206B401C2063E08E401E2F
:100F1000E0862DE02068816889070FD5E18E69B1F0
:100F2000B9F1010F0AD1216B09780173206B401CC4
:100F30002063E08E401EE0864FF000092068816843
:100F4000C9070CD0E18F51B1C068A16B0870A06BCC
:100F5000401CA063E08F401EE0874FF00109FFF7BF
:100F600013FAC01BB04202D3701C01D011E086B14D
:100F7000E08E0028CED1E08F0028CBD13A46314612
:100F8000204600F0D2FC50B12020606584F85080EB
:100F900012E084F851A084F85080032068E7A0682C
:100FA00018B92068C1688068009084F851A084F85E
:100FB0005080606D0028F1D0012059E710B5401E27
:100FC000B0F1807F01D3012010BD4FF0E0246061BB
:100FD0000F21601700F030FE0020A0610720206183
:100FE000002010BD70B5040004D094F84100002525
:100FF00010B106E0012070BD84F84050204600F09A
:1010000023F8242084F841002068C16821F40051AD
:10101000C160204600F06AFD2068016921F490411A
:1010200001612068416921F02A0141612068C1689D
:1010300041F40051C1606564202084F8410084F8C7
:1010400042006563002070BD30B585B00024009477
:1010500001940294039400681449884224D11448EE
:10106000816941F480418161816901F48041049189
:10107000816941F00401816180690E4D00F0040036
:1010800004904FF400700090022001900320039020
:1010900069462846FFF782F82815CDE9000469461D
:1010A00028460294FFF77AF805B030BD00380140B9
:1010B00000100240000801402DE9F843044690F872
:1010C0004100984616460D46202802D00220BDE871
:1010D000F88385B17EB100206064212084F841004E
:1010E000FFF752F9A6848146E684A0682027B0F570
:1010F000805F02D003E00120E9E7206910B12E46AD
:1011000000250EE000260CE08021204600F04AFD7C
:10111000A8B9C6B116F8010B21684860E08C401EE2
:10112000E084E08C4B464FF00002CDF800800028B0
:10113000EAD14FF04001204600F034FD40B184F880
:1011400041700320C3E735F8020BC0F30800E3E762
:1011500084F841700020BAE7FEE701684A69D2438B
:1011600052050FD46FF480624A61002140F8301FAD
:10117000202242738173026942F00402026101730A
:1011800001207047002070472DE9F84304460068AD
:101190000D46DDE9089701689846164641F48071CE
:1011A00001604B4600224FF001112046009700F0ED
:1011B0006BF848B120680068C00502D54FF4007094
:1011C00020640320BDE8F883216805F0FE00086173
:1011D0003B464A461549204600F09EF888B92068EB
:1011E0004169806900903A464946204600F0F2F88D
:1011F00048B1206C042804D12068016841F40071D2
:1012000001600120DEE7F5B2B8F1010F09D02168D5
:10121000300A08613A464946204600F0DBF80028CB
:10122000E7D1206805610020CCE700000200010042
:1012300070B516460D4604461EE02046FFF78DFFAA
:1012400008B1012070BD681C16D0FFF79DF8801B07
:10125000A84200D885B920684069C04340070BD533
:10126000002044F8300F20216173A073216941F000
:10127000200121612073E4E720684069C0434007F2
:10128000DBD4002070BD00002DE9F04798461746DA
:101290000D460446C1F30746DDF820902AE000BF62
:1012A000B8F1FF3F26D0FFF76FF8A0EB09014145E9
:1012B00002D8B8F1000F1DD12068012E16D0806928
:1012C00025EA00000004000C12D00020B84211D121
:1012D000002044F8300F20216173A073216941F090
:1012E0002001216120730120BDE8F0874069E7E714
:1012F0000120EBE72068012E0AD0806925EA000072
:101300000004000C06D00020B842C9D00020EBE752
:101310004069F3E70120F7E72DE9F04798461646C4
:101320000D4604464FF000094FF0200AC1F307476D
:1013300023E020684069C043400515D42068016857
:1013400041F40071016021686FF480604861C4F865
:10135000309084F83DA084F83E90216C41F0040167
:10136000216484F83C9021E0701C06D0FFF70CF853
:10137000A0EB0800B04203D816B1012F1FD021E026
:101380002068012F15D0806925EA00000004000CB8
:1013900018D000BF44F8309F84F80DA084F80E9058
:1013A000216941F02001216184F80C900120BDE801
:1013B000F087406925EA00000004000CEAD12068AB
:1013C000406901E02068806925EA00000004000C03
:1013D000AFD1ECE770B516460D4604461EE0204638
:1013E000FFF7BBFE08B1012070BD681C16D0FEF7E8
:1013F000CBFF801BA84200D885B920684069C04354
:1014000000060BD5002044F8300F20216173A07333
:10141000216941F0200121612073E4E720684069DF
:10142000C0430006DBD4002070BD000030B585B09D
:1014300000241C480094019402940394816941F0B3
:1014400020018161816901F020010491816941F0ED
:1014500004018161816901F004010491816941F015
:10146000080181618069104D00F00800049000229D
:1014700003212846FEF782FF1020CDE900046946CB
:101480000A480294FEF78AFE032000900120CDE96D
:1014900001040220039069462846FEF77FFE05B04E
:1014A00030BD000000100240000C01400008014067
:1014B0000D4810B50B4901600C49416000214FF403
:1014C00080428160C0E9031241618161C1610162B2
:1014D000FEF760FF002803D0BDE81040FEF74ABECB
:1014E00010BD00000054004014000020A086010040
:1014F000104810B50E4901604FF48271416000211F
:101500008160C1604FF400720161C0E905121822C8
:10151000C0E90721416281620A21C162FFF7C4FB71
:10152000002803D0BDE81040FEF724BE10BD000027
:1015300000300140680000200C4810B50A490160E5
:101540004FF4E1314160002181600C22C160C0E9AB
:1015500004128161C161FFF745FD002803D0BDE899
:101560001040FEF707BE10BD00380140C00000204B
:10157000FEE7FEE71CB50FA10522D1E90001CDE988
:1015800000016946302000F0A9F8052269461020C4
:1015900000F046F8002069460A5CA52A03D1401CE9
:1015A000C0B20528F8D3052801D001201CBD0020B9
:1015B0001CBD0000A5A5A5A5A500000010B5164CF2
:1015C000002201212046FEF7D9FE0F21202000F045
:1015D000AFF80121212000F0ABF80121222000F01A
:1015E000A7F82821252000F0A3F80F21262000F0DD
:1015F0009FF82021312000F09BF8052207492A207E
:1016000000F06CF8012211462046FEF7B7FEBDE857
:1016100010400120FEF7B0BD000C0140831E000801
:101620002DE9F041DFF8408015460F4604460022C0
:1016300002214046FEF7A2FE21460C4800F0ECF9DC
:101640000646002406E0FF21084800F0E5F9385579
:10165000641CE4B2AC42F6D3012202214046FEF7FC
:101660008DFE3046BDE8F081000C0140680000208E
:1016700070B50B4D0446002202212846FEF77EFE7F
:101680002146084800F0C8F9FF21064800F0C4F9D7
:101690000446012202212846FEF770FE204670BD56
:1016A000000C01406800002070B505460720FFF7D8
:1016B000DFFF04460146272000F03AF860060AD50D
:1016C000202229466120FFF7ABFFFF21E22000F036
:1016D0002FF8002070BD012070BD00002DE9F04101
:1016E000DFF8448016460D4604460022022140469B
:1016F000FEF744FE21460D4800F08EF9074600240F
:1017000007E000BF15F8011B084800F085F9641CCC
:10171000E4B2B442F6D3012202214046FEF72EFE87
:101720003846BDE8F0810000000C01406800002050
:1017300070B50C4D0E460446002202212846FEF7E5
:101740001DFE2146084800F067F904463146064868
:1017500000F062F9012202212846FEF70FFE204622
:1017600070BD0000000C01406800002070B500242E
:101770000021204600F05AF80025002000F0C2F8B1
:101780006D1CEDB2802DF8D3641CE4B2082CEFD3AD
:1017900070BD10B5C820FEF7EFFCAE2000F0A0F839
:1017A000D52000F09DF8802000F09AF8A82000F0E5
:1017B00097F83F2000F094F8D32000F091F8002033
:1017C00000F08EF8402000F08BF8A12000F088F89F
:1017D000C82000F085F8DA2000F082F8122000F02E
:1017E0007FF8812000F07CF8CF2000F079F8D92034
:1017F00000F076F8F12000F073F8DB2000F070F8CC
:10180000302000F06DF8A42000F06AF8A62000F067
:1018100067F88D2000F064F8142000F061F8AF2024
:1018200000F05EF8BDE81040FFF7A0BF10B50C4611
:1018300040F0B00000F054F8102040EA141000F01E
:101840004FF804F00F00BDE8104000F049B8000068
:101850002DE9F0410746CE004000083E801E1546A7
:101860004FF0FF38F1B2C0B2FFF7E0FF114800249B
:1018700000EB05152819A0F5805090F8000E00F037
:1018800041F8641CE4B2082CF4D308EB4700F1B231
:10189000C0B2FFF7CBFF00242819A0F5805090F8C4
:1018A000080E00F02FF8641CE4B2082CF4D3BDE855
:1018B000F0810000881E00082DE9F04115460E4613
:1018C0000746002406E03019C1B23846FFF7C0FFD2
:1018D000641CE4B22A5D002AF5D1BDE8F081000065
:1018E00001B584B0012104A864228DE807000B46ED
:1018F000002278210248FEF711FE05B000BD00006D
:101900001400002001B584B0012104A864228DE8F0
:1019100007000B46402278210248FEF7FFFD05B084
:1019200000BD0000140000207047F8B515460E46B3
:101930000B46009204460122022100F011F840B942
:101940003346002280212046009500F009F8002847
:1019500004D0606D40F0200060650320F8BD0000F9
:101960002DE9F8431E46914688460446089DFEF739
:101970000BFD401B351AFEF707FD0746254800689A
:10198000C0F3CB30684338E0701C37D0FEF7FCFC66
:10199000C01BA84203D215B1009860B32CE02068A8
:1019A000416821F0E00141606068B0F5827F0BD1B1
:1019B000A068B0F5004F02D0B0F5806F04D1206868
:1019C000016821F040010160A06AB0F5005F09D113
:1019D0002068016821F4005101602068016841F429
:1019E00000510160012084F85100002084F850006B
:1019F0000320BDE8F8830025401E00902068816820
:101A000038EA010004D000214945BDD10020F0E7AB
:101A10000121F9E70C0000203EB5FF248DF80810E5
:101A2000012301AA02A90094FFF7D0F908B18DF8AB
:101A300004409DF804003EBD7047FEF73FBE30B540
:101A40008FB028216846FEF776FB14210AA8FEF71E
:101A500072FB01210804CDE9001000240294022544
:101A60000491CDE907504FF4E01009906846FEF765
:101A70008BFF08B172B6FEE70F20CDE90A054FF4DF
:101A80008060CDE90C4002210AA80E94FEF7A0FE6A
:101A9000002801D072B6FEE70FB030BD7047016874
:101AA0000C3151E8002F22F4907241E80023002B02
:101AB000F5D10168143151E8002F22F0010241E80C
:101AC0000023002BF5D1016B012909D101680C31EC
:101AD00051E8002F22F0100241E80023002BF5D13D
:101AE000202180F8421000210163704770B5044640
:101AF00000680169E26821F44051114301612169E4
:101B0000A0680843616908432168CA6841F20C6310
:101B10009A430243CA6020684169A26921F4407176
:101B2000114341611E492068884202D1FEF7F6FE4A
:101B300001E0FEF7E3FE00EBC00101EB001260687C
:101B400064218000B2FBF0F3B3FBF1F36FF01806F1
:101B50007343B2FBF0F5B2FBF0F605EB83053223DD
:101B600003EB0515B5FBF1F5B6FBF1F605F0F00555
:101B700005EB0615B2FBF0F6B2FBF0F0B0FBF1F0AE
:101B80006FF01802504306EB800003EB0010B0FB2F
:101B9000F1F0216800F00F002844886070BD00005B
:101BA000003801402DE9F843984617460D46044693
:101BB000089E24E0701C22D0FEF7E6FBA0EB080094
:101BC000B0421AD8CEB12068C168490717D5802D18
:101BD00015D0402D13D00168C94309070FD40168FF
:101BE0000025406800902046FFF759FF08206064F8
:101BF00084F840500120BDE8F8830320FBE720680B
:101C0000006835EA000004D00020B842D2D000209D
:101C1000F1E70120F9E7FEE70FB4054B10B503A982
:101C2000044A029800F027F810BC5DF814FB00008D
:101C30004D1D0008100000200907090E002804DBD4
:101C400000F1E02080F80014704700F00F0000F170
:101C5000E02080F8141D704702E008C8121F08C178
:101C6000002AFAD170477047002001E001C1121F1D
:101C7000002AFBD170472DE9F84F994692468846D5
:101C80000546002706E025280AD051464A469047D7
:101C90006D1C7F1C28780028F5D13846BDE8F88FE8
:101CA000002315F8011F18462E2915D115F8011F1C
:101CB00004232A290DD06FF02F022978A1F13004D6
:101CC000092C09D800EB800002EB400008446D1C91
:101CD000F3E758F8040B6D1C2A78002ADDD0632A3C
:101CE00007D0732A0FD0104651464A4690477F1CB2
:101CF0002AE018F8042B8DF8002000218DF801103F
:101D00006E46012103E058F8046B4FF0FF315A078B
:101D10004FF0000401D409E0641C84420BDA8C42C9
:101D2000FADB325D002AF7D105E0641C8C42FCDB53
:101D3000305D0028F9D1274404E016F8010B514624
:101D40004A469047641EF8D26D1CA3E713B54FF0C6
:101D5000FF33012269460248FFF7AEF900981CBD27
:101D6000C00000208AB0FEF7B1FCFFF768FEFFF765
:101D70005DFBFFF7BDFBFFF7DFFBFFF799FBFFF70D
:101D800008FDFFF7F3FC4FF47A7405E013A0FFF7AA
:101D900043FF2046FEF7F0F9FFF7ECFB0028F5D1F2
:101DA00016A0FFF739FFFFF709FC1CA0FFF734FF6F
:101DB00000244FF4FA756846FFF776FC50B98DF8A9
:101DC000204069461AA0FFF727FF6A460221082033
:101DD000FFF772FD2846FEF7CFF9ECE7D3B2BCFE61
:101DE000B2E9D1B0B2BBB5BD4E524632344C3031FF
:101DF000CEDECFDFC4A3BFE90A0000004E52463258
:101E0000344C3031CEDECFDFC4A3BFE9D3B2BCFE49
:101E1000C1ACBDD3D5FDB3A30A000000BDF8C8EB2B
:101E2000CAFDBEDDBDD3CAD5C4A3CABD0A00000029
:101E30004E524632344C3031CEDECFDFC4A3BFE940
:101E4000CAFDBEDDBDD3CAD5B3C9B9A6A3BA257331
:101E50000D0A0000010202030405060708090A0B27
:101E60000C0D0E0F10100000000000000000010219
:101E700003040607080900000000010203043443BC
:101E80001010013443101001000000000000000099
:101E90000000000000000000000000F8000000004A
:101EA000000000333000000000100C06100C06008B
:101EB000000000000000000040C07840C0784000F2
:101EC000043F04043F040400007088FC0830000054
:101ED000001820FF211E0000F008F000E0180000AC
:101EE00000211C031E211E0000F008887000000065
:101EF0001E2123241927211010160E0000000000B7
:101F00000000000000000000000000E018040200D3
:101F1000000000071820400000020418E000000044
:101F20000040201807000000404080F08040400042
:101F30000202010F01020200000000F00000000098
:101F40000101011F0101010000000000000000006C
:101F500080B07000000000000000000000000000E1
:101F6000000101010101010100000000000000006A
:101F70000030300000000000000000008060180405
:101F8000006018060100000000E010080810E000E2
:101F9000000F102020100F00001010F800000000AB
:101FA0000020203F202000000070080808887000F2
:101FB0000030282422213000003008888848300072
:101FC0000018202020110E000000C02010F8000092
:101FD00000070424243F240000F80888880808002B
:101FE0000019212020110E0000E010888818000040
:101FF000000F112020110E0000380808C838080012
:102000000000003F00000000007088080888700091
:10201000001C222121221C0000E010080810E00012
:102020000000312222110F00000000C0C00000009B
:1020300000000030300000000000008000000000C0
:1020400000008060000000000000804020100800B8
:102050000001020408102000404040404040400081
:10206000040404040404040000081020408000005C
:102070000020100804020100007048080808F00061
:102080000000003036010000C030C828E810E00031
:102090000718272423140B000000C038E0000000BC
:1020A000203C23020227382008F888888870000026
:1020B000203F202020110E00C030080808083800FA
:1020C000071820202010080008F808080810E00071
:1020D000203F202020100F0008F88888E808100012
:1020E000203F20202320180008F88888E8081000E6
:1020F000203F200003000000C0300808083800001E
:1021000007182020221E020008F808000008F8081E
:10211000203F210101213F20000808F808080000A5
:102120000020203F2020000000000808F8080800D8
:10213000C08080807F00000008F888C02818080050
:10214000203F20012638200008F808000000000089
:10215000203F20202020300008F8F800F8F8080080
:10216000203F003F003F200008F830C00008F8087A
:10217000203F200007183F00E01008080810E0008A
:102180000F10202020100F0008F808080808F000A1
:10219000203F210101010000E01008080810E000C4
:1021A0000F18242438504F0008F888888888700059
:1021B000203F2000030C30200070880808083800F9
:1021C0000038202121221C00180808F808081800EF
:1021D0000000203F2000000008F808000008F80870
:1021E000001F202020201F000878880000C8380821
:1021F000000007380E010000F80800F80008F80099
:10220000033C0700073C0300081868808068180832
:1022100020302C03032C30200838C800C8380800B0
:102220000000203F2000000010080808C8380800FF
:102230002038262120201800000000FE02020200A3
:102240000000007F40404000000C30C00000000053
:10225000000000010638C00000020202FE0000007B
:10226000004040407F000000000004020202040021
:10227000000000000000000000000000000000005E
:102280008080808080808080000202040000000046
:10229000000000000000000000008080808000003E
:1022A0000019242222223F2008F80080800000002C
:1022B000003F112020110E000000008080800000EF
:1022C000000E112020201100000000808088F800FE
:1022D000000E112020103F20000080808080000030
:1022E000001F222222221300008080F08888881894
:1022F0000020203F2020000000008080808080009F
:10230000006B94949493600008F800808080000033
:10231000203F210000203F2000809898000000000E
:102320000020203F2020000000000080989800003E
:1023300000C08080807F000008F80000808080005E
:10234000203F24022D302000000808F80000000083
:102350000020203F2020000080808080808080003E
:10236000203F20003F20003F8080008080800000D0
:10237000203F210000203F2000008080808000005E
:10238000001F202020201F0080800080800000008F
:1023900080FFA12020110E000000008080808000BE
:1023A000000E112020A0FF808080800080808000AF
:1023B00020203F21200001000000808080808000DC
:1023C0000033242424241900008080E08080000051
:1023D0000000001F2020000080800000008080009E
:1023E000001F202020103F208080800000808080FF
:1023F00000010E300806010080800080008080808F
:102400000F300C030C300F000080800080808000B3
:102410000020312E0E3120008080800000808080DE
:1024200080818E701806010000808080808080008E
:102430000021302C2221300000000000807C0202AC
:1024400000000000003F404000000000FF000000CE
:1024500000000000FF0000000002027C800000007D
:102460000040403F00000000000601010202040499
:10247000000000000000000020102CE72424403C55
:102480001010FF10101000000101017F2111804188
:10249000310D030D31418100404042CC0008E9AAD2
:1024A000B8A8A8AAE90800000040201F20405F4A01
:1024B0004A4A4A4A5F4040001060028C0008F94EC8
:1024C000C820584F48C8080004047E8140300F409F
:1024D0007F0044847F04040080808888888888FF87
:1024E000888888888880800000007C404040407F49
:1024F00040404040FC00000000FE0222DA060000DE
:1025000000FF00000000000000FF081088472018AE
:102510000700071820408000082848890E8878089E
:102520000800F80000FF00004020100906196000B4
:1025300000000F40807F0000008060F84740444466
:10254000447F444444444000010000FF4040444470
:10255000447F444444444000807000FF102810FC35
:102560000340207F8886E00080601807083004055B
:102570000404FF0404040400101014D45454545FE1
:10258000545454D41410100020201013FA4622067C
:102590000A1222534884800000F000FF00F020104F
:1025A0004C4B4848C8480800001F100F081F003057
:1025B00048444241404070000000F8484848C8483C
:1025C0004848FF0809CA080080601F828A562352C3
:1025D0008E4027182641F00004040404F4949596D4
:1025E0009494F4040404040000FE02027A4A4A4A65
:1025F0004A4A7A0282FE00008484FC8484405E5051
:102600005050DF5050505E0010301F080800FE028E
:10261000027F027E0282FE0000FE0222DA0600FC39
:102620000404040404FC000000FF0810080700FF75
:102630004141414141FF0000000000000000000056
:10264000000000000000000000000000000000008A
:10265000000000000000000000000000000000007A
:10266000000000000000000000000000000000006A
:10267000000000000000000000000000000000005A
:10268000000000000000000000000000000000004A
:10269000000000000000000000000000000000003A
:1026A000000000000000000000000000000000002A
:1026B000000000000000000000000000000000001A
:1026C000000000000000000000000000000000000A
:1026D00000000000000000000000000000000000FA
:1026E00000000000000000000000000000000000EA
:1026F00000000000000000000000000000000000DA
:1027000000000000000000000000000000000000C9
:1027100000000000000000000000000000000000B9
:1027200000000000000000000000000000000000A9
:102730000000000000000000000000000000000099
:1027400000808080C0C08000000000000000000009
:10275000000000000000000000C0000000000000B9
:102760000000000000000000000000000000000069
:102770000000000000000000000000000000000059
:102780000000C0C0000000000000000000000000C9
:102790000000000000000020C00000000000000059
:1027A0000000000000000000800000600080601059
:1027B0000000000000000000000000000020C00039
:1027C00020311111D03E0C0888F0200000000000DC
:1027D00080800040584EC6624F25EC702321202097
:1027E00020000000000000000000040C8CFC260605
:1027F0000600000000000000000000003030100B58
:10280000FE00F03F101A0C80800000000000000065
:102810000000002060E0F0BF9D0C060600000000F4
:102820000000000000E0000407043412D3B1D98195
:102830004506000000000000000000000000010646
:10284000020202020303020603000000000000006F
:10285000000000000000090507030302040C080043
:102860000000000000000206020202030101010153
:1028700001010101030000000000000E0606020332
:10288000030101010101010101030000000000003A
:10289000000808080403000001010103060C0800F9
:1028A00000000000000000000014131030100F079B
:1028B0000000000000000000000000000000000018
:1028C0000000000000000000000000000000000008
:1028D00000000000000000000000000000000000F8
:1028E00000000000000000000000000000000000E8
:102AC000000000000000000000000000F000000016
:102AD00000000000000000000000000000000000F6
:102AE00000000000000000000000000000000000E6
:102AF00000000000000000000000000000000000D6
:102B000000000000000080404000000000000000C5
:102B100000000000000000000000000000000000B5
:102B200000000000000000000000C00000000000E5
:102B30000000000000000000000000000000000095
:102B400000000000000000000000A00802000004D7
:102B50000C0000C0000000000000000000000000A9
:102B600000000030E000000040402010080000009D
:102B70000000008060180C040000000000004040CD
:102B80004020E07C13010000F0586020200000404D
:102B9000C06020303020000080E070703000000005
:102BA0000000E0B090988880E09BC000008080002A
:102BB000804040C0600000000000000000000000F5
:102BC0000000000000000000F00A80C020300CC6A9
:102BD0003E00001F10101010181F302020206060D1
:102BE0003010080402030304082040F8000000002D
:102BF00000000003020202020301000000000000C6
:102C000080700F00000000030100000000000000C1
:102C1000010202020101010100030202020202029A
:102C20000206070303030201010101010100004044
:102C3000201403000000000000000000000000005D
:102C40000000000000000000010100000000000181
:102C50000000000000000000000000000000000074
:102C60000000000000000000000000000000000064
:102C700000000000000000000000000000000F063F
:102C80000100000000000000000000000000000043
:102C9000000000000000000000000000000000D85C
:102CA00000000000000080404020080004000100F7
:102CB0000000000000000000000000000000000014
:102CC0000000000000000000000000000000000004
:102CD00000000000000000000000000000000000F4
:102CE00000000000000000000000000000000000E4
:102CF00000000000000000000000000000000000D4
:102D000000000000000000000000000000000000C3
:102D100000000000000000000000000000000003B0
:102D20000202020201010000000000000000000099
:102D30000000000000000000000000000000000093
:102D40000000000000000000000000000000000083
:102D50000000000000000000000000000000000073
:102D60000000000000000000000000000000000063
:102D70000000000000000000000000000000000053
:102D80000000000000000000000000000000000043
:102D90000000000000000000000000000000000033
:102DA0000000000000000000000000000000000023
:102DB0000000000000000000000000000000000013
:102DC0000000000000000000000000000000000003
:102DD00000000000000000000000000000000000F3
:102DE00000000000000000000000000000000000E3
:102DF00000000000000000000000000000000000D3
:102E000000000000000000000000000000000000C2
:102E100000000000000000000000000000000000B2
:102E200000000000000000000000000000000000A2
:102E30000000000000000000582E000800000020E4
:102E400014000000581C00086C2E0008140000201C
:102E5000F4040000681C00080100000010000000DD
:0C2E60000000000000127A0000000000DA
:04000005080000ED02
:00000001FF
