:020000040800F2
:100000006805002005010008AF1D0008DD18000884
:10001000AD1D000871010008B126000800000000B5
:1000200000000000000000000000000001230008A4
:100030007301000800000000F121000803230008FC
:100040001F0100081F0100081F0100081F01000810
:100050001F0100081F0100081F0100081F01000800
:100060001F0100081F0100081F0100081F010008F0
:100070001F0100081F0100081F0100081F010008E0
:100080001F0100081F0100081F0100081F010008D0
:100090001F0100081F0100081F0100081F010008C0
:1000A0001F0100081F0100081F0100081F010008B0
:1000B0001F010008692300081F0100081F01000834
:1000C0001F0100081F0100081F0100081F01000890
:1000D0001F010008A52600081F0100081F010008D5
:1000E0001F0100081F0100081F010008DFF810D0E1
:1000F00000F02CF80048004701280008AFF300800A
:10010000680500200648804706480047FEE7FEE7EE
:10011000FEE7FEE7FEE7FEE7FEE7FEE7FEE7FEE7B7
:1001200065230008ED000008D2B201E000F8012BC1
:10013000491EFBD270470022F6E710B513460A4667
:1001400004461946FFF7F0FF204610BD064C074D48
:1001500006E0E06840F0010394E807009847103497
:10016000AC42F6D3FFF7C6FF4C3A00086C3A0008E1
:10017000FEE7704772B6FEE710B590F82110002236
:10018000022905D00421816380F82020012010BDC0
:1001900001680B6823F00E030B6001680B6823F005
:1001A00001030B6090F84030C46B012101FA03F3A6
:1001B000636080F8211080F82020104610BD0000F8
:1001C00010B590F821100024022903D00421816386
:1001D00001243DE001680A6822F00E020A6001680D
:1001E0000A6822F001020A601A4A0168914201D1AC
:1001F000012121E0174A1432914201D110211BE064
:10020000144A2832914201D1891515E0114A3C3235
:10021000914201D189140FE00E4A5032914202D12D
:100220004FF4803108E00B4A6432914202D14FF41E
:10023000801101E04FF08071064A083A51600121B7
:1002400080F82110002180F82010416B01B188470F
:10025000204610BD0800024070B5044600F008F9C1
:100260000546601C02D004480078044400F000F900
:10027000401BA042FAD370BD0C0000202DE9F84FBE
:10028000DFF8B8910024A9F1040B23460F2709F1E8
:10029000040AABF1040EC9E00125A5402A40AA4298
:1002A0007DD1674ED1F804C0ACEB0608B44532D01E
:1002B00014DCBCF1030F3AD009DCBCF1000F2AD0EA
:1002C000BCF1010F1CD0BCF1020F31D11DE0BCF11B
:1002D000110F17D0BCF1120F2AD119E0B8F5881F01
:1002E00019D006DCB8F5803F15D0B8F5801F1FD1B6
:1002F00011E0B8F5001F0ED0B8F5041F18D10AE0C0
:10030000CB6815E0CB681B1D12E0CB6808330FE00B
:10031000CB680C330CE08B682BB1012B4FF008033A
:1003200003D0456104E0042302E0056100E00023FE
:10033000FF2A01D8064601E000F104064FEA8405D1
:1003400001D9A5F12005D6F8008007FA05FC28EAB6
:100350000C0803FA05F548EA0508C6F800804D6860
:10036000ED0062D5374DAE6946F00106AE61AD696C
:1003700024F0030605F001050095334D06EB050C4E
:10038000DCF80850A607360F07FA06F825EA080534
:10039000DFF8B880404503D14FF0000817E044E093
:1003A000DFF8AC80404502D14FF001080FE0DFF8E4
:1003B000A480404502D14FF0020808E0DFF89880A1
:1003C000404502D14FF0030801E04FF0040808FA5D
:1003D00006F848EA0508CCF808804D68D9F80060AE
:1003E000ED024D4601D5164300E096432E604D6860
:1003F000DAF80060AD02554601D5164300E0964399
:100400002E604D68DBF80060AD035D4601D51643F4
:1004100000E096432E604D68DEF80060ED037546FF
:1004200001D5164300E096432E60641C0D682A46F1
:10043000E5407FF431AFBDE8F88F000008040140CB
:1004400000001110001002400000014000080140AF
:10045000000C014000100140001401408068084079
:1004600000D0012070470AB1016170470904FBE721
:1004700001488068704700000C00002070B504003F
:1004800025D094F83D00002520B984F83C50204642
:1004900000F050F9242084F83D002068016821F024
:1004A000010101602068016841F400410160206899
:1004B000016821F40041016000F0A2FA4D4A616830
:1004C000914201D84C4900E04C49884201D20120B8
:1004D00070BD4B492368B0FBF1F15E6826F03F0622
:1004E0000E435E606368934206D94FF49673594396
:1004F0004FF47A73B1FBF3F12368491C1E6A26F0AE
:100500003F06314319626168914210D84900401E8C
:10051000B0FBF1F2521CC2F30B02042A01D20420F8
:1005200022E0B0FBF1F0401CC0F30B001CE0A2681D
:10053000F2B301EBC10303EB0116431EB3FBF6F369
:100540005B1C43F480431B0549D092B301EBC1020D
:1005500002EB0111401EB0FBF1F0401CC0F30B0098
:1005600040F4804040F400402168CA694CF6FF73B3
:100570009A431043C861D4E9071001432068026818
:1005800022F0C00211430160D4E903010143206855
:10059000826848F2FF339A4311438160D4E9050130
:1005A00008432168CA6822F0FF021043C86001E0D6
:1005B0000EE016E02068016841F001010160256449
:1005C000202084F83D00256384F83E50002070BD53
:1005D00001EB4106431EB3FBF6F35B1CB3E70120BE
:1005E000C2E701EB4101401EB0FBF1F0401CC0F33B
:1005F0000B00B7E7A086010080841E0000093D00C3
:1006000040420F002DE9FF4F83B09A46DDE9119774
:1006100093460446DDF84080FFF72AFF054694F82C
:100620003D0020287FD11923012240492046009512
:1006300001F0ECF9002876D194F83C00012872D042
:10064000012084F83C0020680168C90703D10168D3
:1006500041F0010101602068016821F4006101603E
:10066000212084F83D00402084F83E0000262664C6
:10067000C4F82480A4F82A90608D20852C48E0627C
:10068000CDE9007553465A462046049901F03EF9DB
:1006900070B930E02A463946204601F05DFA58B17B
:1006A000206C042804D12068016841F400710160C5
:1006B000012007B0BDE8F08F606A2168007808610A
:1006C000606A401C6062218D491E89B22185628D5D
:1006D000521E628522685369DB435B070BD469B104
:1006E00000781061606A401C6062208D401E208589
:1006F000608D401E6085208D0028CBD12A4639466A
:10070000204601F057F90028CAD154F83D0B016882
:1007100041F400710160202004F81E09E677667735
:100720000020C6E7FFE70220C3E700000200100038
:100730000000FFFF10B586B00021009101910291E9
:10074000039100681349884222D1134CA06940F0FC
:100750000800A061A069694600F0080004904FF409
:100760004070009012200190032003900B48FFF787
:1007700085FD0B48416841F0E06141F002014160B4
:10078000E06940F40010E061E06900F400100490BA
:1007900006B010BD0054004000100240000C0140A3
:1007A000000001400248816802781144816070476E
:1007B0000C000020074810B5016841F010010160ED
:1007C000032000F075F80F2000F006F800F024F880
:1007D000002010BD0020024070B50D4D04464FF4BE
:1007E0007A712878B1FBF0F00A490968B1FBF0F0A2
:1007F00000F066FC48B9102C07D200222146501E9A
:1008000000F036F800206C6070BD012070BD000063
:100810000C000020180000200C4808B5816941F048
:1008200001018161816901F001010091C16941F01B
:100830008051C161C06900F0805000900448416857
:1008400021F0E06141F00071416008BD00100240FC
:1008500000000140002809DB00F01F020121914047
:100860004009800000F1E020C0F80011704700004E
:10087000F0B40E4B1B680C46C3F30223C3F107050B
:10088000042D00D90425191D072901D2002300E0F9
:10089000DB1E012606FA05F1491E214099409E40C3
:1008A000761E16403143F0BC01F014BF0CED00E0A1
:1008B000064900F0070208684FF6FF03184040EAB7
:1008C0000220034A10430860704700000CED00E06E
:1008D0000000FA052DE9F0470F46050061D0434EB0
:1008E000306800F00700B84209D2306820F00700F5
:1008F00038433060306800F00700B84251D12868B2
:100900003B4C810712D5400703D5606840F4E06096
:1009100060602878000703D5606840F4605060602C
:100920006068A96820F0F000084360602878C0077C
:1009300028D06868012810D02168022810D08907C3
:1009400000292EDA616821F0030101436160FFF79D
:100950008FFD804641F288390DE021688903EFE779
:100960008901EDE7FFF784FDA0EB0801494502D9B5
:100970000320BDE8F0876068696800F00C00B0EB08
:10098000810FEFD1306800F00700B8420BD9306812
:1009900020F0070038433060306800F00700B842AC
:1009A00001D00120E5E72878400705D56068E968AF
:1009B00020F4E060084360602878000706D560688E
:1009C000296920F4605040EAC100606000F038F806
:1009D0006168084AC1F30311515CC84006490860C8
:1009E00006480068FFF7F8FE0020C2E7002002403A
:1009F000001002407A2A0008180000201000002091
:100A00000448054900684968044AC1F30221515C61
:100A1000C840704718000020001002408A2A0008D1
:100A20000448054900684968044AC1F3C221515C81
:100A3000C840704718000020001002408A2A0008B1
:100A40000E4A51680E4801F00C03042B11D0082BFC
:100A50000FD10C48C1F38343C903C05C0AD5516868
:100A6000084AC1F34041921E515C054A5043B0FB15
:100A7000F1F07047044948437047000000100240FD
:100A800000127A006A2A000800093D002DE9F84F9B
:100A9000040070D02078C04DC00749D06868C0F30A
:100AA0008100012807D06868C0F38100022809D1BD
:100AB0006868C00306D52868800339D560680028B7
:100AC000E7D035E06068B0F5803F0BD010B1B0F5ED
:100AD000A02F11D0286820F480302860286820F4E6
:100AE000802002E0286840F480302860606890B17F
:100AF000FFF7BEFC06460AE0286840F48020286024
:100B0000F0E700BFFFF7B4FC801B642873D82868A7
:100B10008003F7D50CE0FFF7ABFC064605E000BF0D
:100B2000FFF7A6FC801B6428F0D828688003F7D460
:100B300020789A4E80074FF001094FF0000839D510
:100B4000686810F00C0F07D06868C0F381000228B5
:100B500009D16868C00306D42868800714D52069C5
:100B6000012808D110E02069B0B1C6F80090FFF765
:100B70007FFC074605E00AE1FFF77AFCC01B02286C
:100B8000C4D828688007F7D52868616920F0F80084
:100B900040EAC10028600DE0C6F80080FFF768FC5D
:100BA000074604E0FFF764FCC01B022823D828682E
:100BB0008007F7D4207800072CD57948A169D9B1EE
:100BC000C0F80090FFF754FC074604E0FFF750FC24
:100BD000C01B02280FD8686A8007F7D571484FF408
:100BE000FA510068B0FBF1F0009000BF0098411E80
:100BF0000091FAD20EE080E0C0F80080FFF738FCE8
:100C0000074604E0FFF734FCC01B022875D8686A69
:100C10008007F7D42078400760D5E8690027C00036
:100C200008D4E86940F08050E861E869012700F0E5
:100C3000805000905C480168C90513D40168834660
:100C400041F480710160FFF713FC824606E000BFAB
:100C5000FFF70EFCA0EB0A0064284ED8DBF800007A
:100C6000C005F5D5E06801280AD008B1052813D0E1
:100C7000286A20F001002862286A20F0040002E0BF
:100C8000286A40F001002862E06841F2883B98B190
:100C9000FFF7EEFB82460BE0286A40F00400286272
:100CA000EEE700BFFFF7E4FBA0EB0A0159455AD875
:100CB000286A8007F6D50CE0FFF7DAFB824605E0EC
:100CC000FFF7D6FBA0EB0A0159454CD8286A8007EC
:100CD000F6D41FB1E86920F08050E861E06988B37C
:100CE0006968C1F38101022944D00228C6F86080F6
:100CF00004D0FFF7BDFB044638E034E0FFF7B8FB53
:100D0000074604E0FFF7B4FBC01B02282BD8286875
:100D10008001F7D4206AB0F5803F05D16868A168EA
:100D200020F4003008436860D4E90801084369688A
:100D300021F4741108436860C6F86090FFF798FBCF
:100D4000044606E025E000BFFFF792FB001B0228E7
:100D500009D828688001F7D51BE000BFFFF788FBA2
:100D6000001B022802D90320BDE8F88F2868800103
:100D7000F4D40EE00128F7D06868226A00F48031CC
:100D8000914204D1616A00F47010884201D00120C0
:100D9000EAE70020E8E700000010024000004242BD
:100DA00080044242180000200070004070B504002A
:100DB00009D0606A002540B125616561A56294F89B
:100DC000510040B10CE0012070BD6068B0F5827F39
:100DD000F4D0E561F2E784F85050204600F040F886
:100DE000022084F851002068016821F04001016070
:100DF000A088218900F4827001F404410843A1898C
:100E000001F400610843217C01F002010843217DC7
:100E100001F001010843218B01F400710843217F97
:100E200001F03801084394F8201001F080010843D4
:100E3000218D01F40051084321680860A069042154
:100E400001EA1040216848602068C16921F400610E
:100E5000C1616565012084F85100002070BD00006B
:100E600030B585B000240094019402940394006886
:100E70001449884223D11448816941F48051816129
:100E8000816901F480510491816941F0040181611B
:100E900080690E4D00F004000490A0200090022014
:100EA00001900320039069462846FFF7E7F94020A8
:100EB000CDE90004694628460294FFF7DFF905B042
:100EC00030BD000000300140001002400008014029
:100ED0002DE9FF4F81B01D46934604464FF00109AE
:100EE0000E9EFFF7C5FA074694F851006168012885
:100EF00006D0B1F5827F3CD1A168C9BB042838D1A6
:100F00000298002871D0BBF1000FFBD0002DF9D062
:100F100094F8500001282CD04FF0010A84F850A01A
:100F200094F85100042802D0052084F851004FF0B5
:100F30000008C4F85480C4F838B0E587A587029942
:100F40002163E586A586C4F84080C4F84480206803
:100F50000168490603D4016841F040010160E0687E
:100F6000B0F5006F606808D0F0B3012D49D081E082
:100F7000FFE7022005B0BDE8F08F08B1012D39D19F
:100F8000206B21680088C860206B801C2063E08E85
:100F9000401EE0862EE02068816889070FD5E18E2B
:100FA00069B1B9F1010F0AD1216B0988C160206BC9
:100FB000801C2063E08E401EE0864FF00009206810
:100FC0008168C9070CD0E18F51B1C068A16B08805E
:100FD000A06B801CA063E08F401EE0874FF00109EA
:100FE000FFF746FAC01B01E00BE067E0B04201D317
:100FF000701C50D1E08E0028CDD1E08F0028CAD1DE
:101000003EE0206B216800780873206B401C206351
:10101000E08E401EE0862DE02068816889070FD5AC
:10102000E18E69B1B9F1010F0AD1216B0978017321
:10103000206B401C2063E08E401EE0864FF00009CC
:1010400020688168C9070CD0E18F51B1C068A16BDD
:101050000870A06B401CA063E08F401EE0874FF03B
:101060000109FFF705FAC01BB04202D3701C01D082
:1010700011E086B1E08E0028CED1E08F0028CBD1E0
:101080003A463146204601F0B4F850B12020606560
:1010900084F8508012E084F851A084F85080032036
:1010A00068E7A06818B92068C1688068009084F873
:1010B00051A084F85080606D0028F1D0012059E7DC
:1010C00010B5401EB0F1807F01D3012010BD4FF05C
:1010D000E02460610F21601701F0FCFA0020A0619C
:1010E00007202061002010BD7047704770B590F850
:1010F0003C20012A26D0012480F83C40022280F8BE
:101100003D2003685A689D6822F070060A683243E1
:101110005A600D4B02689A4208D0B2F1804F05D058
:101120000A4B9A4202D00A4B9A4204D1496825F0F0
:1011300080031943916080F83D40002180F83C1005
:10114000084670BD022070BD002C01400004004024
:101150000008004010B5040003D094F83D0010B121
:1011600007E0012010BD002084F83C00204600F07C
:101170001FF8022084F83D00211D206801F0FAF8D4
:10118000012084F8460084F83E0084F83F0084F88B
:10119000400084F8410084F8420084F8430084F859
:1011A000440084F8450084F83D00002010BD000094
:1011B00008B500680B49884212D10B48C16941F05B
:1011C0000201C161C069002200F0020000901146D6
:1011D0001D20FFF74DFBBDE808401D20FFF73ABB7F
:1011E00008BD0000000400400010024090F83D10CF
:1011F000012901D001207047022180F83D100168CB
:10120000CA6842F00102CA6000680B49884208D0EF
:10121000B0F1804F05D00949884202D00849884280
:1012200004D1816801F00701062903D0016841F06B
:101230000101016000207047002C014000040040C3
:101240000008004070B5044690F83C0000250128D5
:1012500017D0012684F83C60022084F83D00206805
:10126000826822F0770222F47F4282600868502868
:1012700038D00DDC20284FD005DC90B3102811D1D8
:101280004AE0022070BD302846D040280AD13BE019
:1012900060282FD070280DD0B0F5805F03D0B0F556
:1012A000005F12D0012584F83D60002084F83C00E6
:1012B000284670BDCB68D1E90121206801F096F87D
:1012C0002068816841F0770109E0CB68D1E901210C
:1012D000206801F08BF82068816841F480418160CA
:1012E000E1E719E0CA684968206801F091F85021E7
:1012F000206806E0CA684968206801F09AF8602111
:10130000206801F07DF8CEE7CA684968206801F0DE
:101310007FF840212068F4E7226801461046F0E794
:1013200070472DE9F04104460068C66805694FF032
:101330000007A90713D5B10711D5F91E01610120D6
:101340002077206880698007204602D0FFF7E8FFF9
:1013500004E000F07EF8204600F07CF8277768076C
:1013600016D5700714D521686FF0040008610220BB
:1013700020772068806910F4407F204602D0FFF774
:10138000CFFF04E000F065F8204600F063F827770F
:10139000280715D5300713D521686FF008000861BC
:1013A000042020772068C0698007204602D0FFF71C
:1013B000B7FF04E000F04DF8204600F04BF8277727
:1013C000E80616D5F00614D521686FF01000086104
:1013D000082020772068C06910F4407F204602D0A2
:1013E000FFF79EFF04E000F034F8204600F032F8EA
:1013F0002777E80708D0F00706D021686FF00100D2
:101400000861204600F028F8280608D5300606D5E1
:1014100021686FF0800008612046FFF765FE6806CE
:1014200008D5700606D521686FF040000861204697
:1014300000F056F8A8060AD5B00608D521686FF066
:10144000200008612046BDE8F041FFF74EBEBDE830
:10145000F08170477047000070B500681D498842F0
:1014600037D11D4D01212846FEF7F8FF00B10120BC
:101470001A4C022160702846FEF7F0FF00B10120EF
:10148000207104212846FEF7E9FF00B10120002168
:10149000E07101224FEA010301EB4100255C25B117
:1014A000012D07D0022D11D10BE005196D786DB912
:1014B00022540BE005196E783EB902262654AA7014
:1014C00004E005196D78012D00D12354491C04292D
:1014D000E2DB70BD00040040000801405C01002018
:1014E0007047704770470000F8B501680446086807
:1014F000CA684B6910F00F0F4FF0000559D003F088
:10150000010602F49077374365D0C10705D0D105B5
:1015100003D5616C41F001016164410705D5D9072C
:1015200003D0616C41F002016164810705D5D907E0
:1015300003D0616C41F004016164010707D502F03A
:101540002001314303D0616C41F008016164616C9A
:1015500000293AD0800604D5900602D5204600F036
:10156000A9FF20684069616CC0F38010090700D4AE
:1015700060B3204600F077FF20684069400621D51F
:101580002068143050E8001F21F0400140E80012AC
:10159000002AF5D1E06BA8B16D494163E06BFEF71D
:1015A0000FFE002811D0E06B416B01B0BDE8F040A8
:1015B000084783060FD593060DD52046BDE8F840B1
:1015C00000F078BF2046FFF78DFFF8BD2046FFF7FB
:1015D00089FF6564F8BD266B2023012E7CD1C606E9
:1015E0007AD5D60678D508684868009048694FF0E3
:1015F0000206400640D5E16B086840680004000C14
:10160000E8D0A28D8242E5D9E085886920282DD0D6
:1016100020680C3050E8001F21F4807140E800126F
:10162000002AF5D12068143050E8001F21F0010194
:1016300040E80012002AF5D12068143050E8001F5D
:1016400021F0400140E80012002AF5D184F8423030
:10165000256320680C3050E8001F21F0100140E89D
:101660000012002AF5D1E06BFEF786FD6663A08DBF
:10167000E18D401A81B22AE0A08DE18D401A81B23D
:10168000E08D0028A6D00029A4D022680C3252E8B0
:10169000000F20F4907042E80007002FF5D1206879
:1016A000143050E8002F22F0010240E80027002FFC
:1016B000F5D184F84230256320680C3050E8002FC3
:1016C00022F0100240E80023002BF5D1666320468B
:1016D000FFF707FFF8BDFFE705062BD5150629D54F
:1016E00094F841002128F5D1A068B0F5805F01D1C0
:1016F0002069B0B1206A411C2162216800784860ED
:10170000E08C401E0004000CE084E3D12068C16836
:1017100021F08001C1602068C16841F04001C160D2
:10172000D8E7206A0088C0F308004860206A801C5F
:101730002062E5E74006CDD55006CBD5CA682046E5
:1017400022F04002CA6084F8413000F0C6F8C1E7D8
:101750005724000870B5040004D094F84100002517
:1017600010B106E0012070BD84F84050204600F022
:1017700023F8242084F841002068C16821F4005136
:10178000C160204600F0F8FE2068016921F4904114
:1017900001612068416921F02A0141612068C16826
:1017A00041F40051C1606564202084F8410084F850
:1017B00042006563002070BD30B585B00024009400
:1017C0000194029403940068184988422CD1184867
:1017D000816941F480418161816901F48041049112
:1017E000816941F0040181618069124D00F00400BB
:1017F00004904FF4007000900220019003200390A9
:1018000069462846FEF73AFD2815CDE900046946E9
:1018100028460294FEF732FD002211462520FFF7EC
:1018200027F82520FFF716F805B030BD0038014035
:10183000001002400008014070472DE9F8430446BB
:1018400090F84100984616460D46202802D0022006
:10185000BDE8F88385B17EB100206064212084F862
:101860004100FEF705FEA6848146E684A068202795
:10187000B0F5805F02D003E00120E9E7206910B1F4
:101880002E4600250EE000260CE08021204600F0C8
:10189000CFFEA8B9C6B116F8010B21684860E08CEC
:1018A000401EE084E08C4B464FF00002CDF80080F3
:1018B0000028EAD14FF04001204600F0B9FE40B1C7
:1018C00084F841700320C3E735F8020BC0F3080029
:1018D000E3E784F841700020BAE77047FEE701684B
:1018E0004A69D24352050FD46FF480624A610021E5
:1018F00040F8301F202242738173026942F00402D3
:101900000261017301207047002070472DE9F84300
:10191000044600680D46DDE90897016898461646BA
:1019200041F4807101604B4600224FF001112046C6
:10193000009700F06BF848B120680068C00502D538
:101940004FF4007020640320BDE8F883216805F09F
:10195000FE0008613B464A461549204600F09EF8C5
:1019600088B920684169806900903A464946204616
:1019700000F0F2F848B1206C042804D12068016816
:1019800041F4007101600120DEE7F5B2B8F1010F0A
:1019900009D02168300A08613A464946204600F0DD
:1019A000DBF80028E7D1206805610020CCE70000C3
:1019B0000200010070B516460D4604461EE02046A2
:1019C000FFF78DFF08B1012070BD681C16D0FEF72F
:1019D0004FFD801BA84200D885B920684069C043EC
:1019E00040070BD5002044F8300F20216173A0730D
:1019F000216941F0200121612073E4E720684069FA
:101A0000C0434007DBD4002070BD00002DE9F04743
:101A1000984617460D460446C1F30746DDF8209068
:101A20002AE000BFB8F1FF3F26D0FEF721FDA0EB72
:101A30000901414502D8B8F1000F1DD12068012EDF
:101A400016D0806925EA00000004000C12D00020A6
:101A5000B84211D1002044F8300F20216173A073E7
:101A6000216941F02001216120730120BDE8F08748
:101A70004069E7E70120EBE72068012E0AD0806982
:101A800025EA00000004000C06D00020B842C9D0AE
:101A90000020EBE74069F3E70120F7E72DE9F04785
:101AA000984616460D4604464FF000094FF0200AAE
:101AB000C1F3074723E020684069C043400515D4BF
:101AC0002068016841F40071016021686FF4806052
:101AD0004861C4F8309084F83DA084F83E90216CB1
:101AE00041F00401216484F83C9021E0701C06D090
:101AF000FEF7BEFCA0EB0800B04203D816B1012FE0
:101B00001FD021E02068012F15D0806925EA000050
:101B10000004000C18D000BF44F8309F84F80DA0DA
:101B200084F80E90216941F02001216184F80C9025
:101B30000120BDE8F087406925EA00000004000CA0
:101B4000EAD12068406901E02068806925EA000048
:101B50000004000CAFD1ECE770B516460D46044604
:101B60001EE02046FFF7BBFE08B1012070BD681CD7
:101B700016D0FEF77DFC801BA84200D885B92068EE
:101B80004069C04300060BD5002044F8300F2021E7
:101B90006173A073216941F0200121612073E4E7A2
:101BA00020684069C0430006DBD4002070BD0000FF
:101BB0002DE9F04186B000252E480095019502954B
:101BC0000395816941F010018161816901F0100183
:101BD0000491816941F020018161816901F0200156
:101BE0000491816941F004018161816901F004017E
:101BF0000491816941F00801816180691E4F00F004
:101C00000800049001224FF460413846FEF72BFC97
:101C1000DFF86880002201214046FEF724FC012203
:101C200002214046FEF71FFC7814012403268DE8AC
:101C3000710069463846FEF721FBB0038DE831009C
:101C40000220039069463846FEF718FB1720CDE9BD
:101C50000005694602940A48FEF710FBCDE90064CE
:101C6000CDE9024669464046FEF708FB06B0BDE8EE
:101C7000F08100000010024000100140000C014003
:101C8000000801400D4810B50B4901600C49416046
:101C900000214FF480428160C0E9031241618161FB
:101CA000C1610162FEF7EAFB002803D0BDE81040E5
:101CB000FEF760BA10BD0000005400402000002074
:101CC000A0860100104810B50E4901604FF48271E2
:101CD000416000218160C1604FF400720161C0E980
:101CE00005121822C0E90721416281620A21C162FE
:101CF000FFF75CF8002803D0BDE81040FEF73ABAC1
:101D000010BD0000003001407400002010B586B006
:101D100000241748009401940294039404941349F6
:101D2000059401604721C0E9011442F20F71C0E936
:101D300003148461FFF70EFA08B1FEF71BFA4FF4A3
:101D40008050009069460A48FFF77CFA08B1FEF718
:101D500011FA049404A906480594FFF7C7F900286E
:101D600001D0FEF707FA06B010BD000000040040E5
:101D7000CC0000200C4810B50A4901604FF4E13155
:101D80004160002181600C22C160C0E904128161C0
:101D9000C161FFF7DFFC002803D0BDE81040FEF76B
:101DA000E9B910BD0038014014010020FEE7FEE74C
:101DB0001CB50FA10522D1E90001CDE9000169465A
:101DC000302000F0C9F805226946102000F014F810
:101DD000002069460A5CA52A03D1401CC0B2052830
:101DE000F8D3052801D001201CBD00201CBD000037
:101DF000A5A5A5A5A50000002DE9F041DFF84080CC
:101E000015460F460446002202214046FEF72BFBF2
:101E100021460C4800F064FA0646002406E0FF2143
:101E2000084800F05DFA3855641CE4B2AC42F6D3C1
:101E3000012202214046FEF716FB3046BDE8F08144
:101E4000000C01407400002070B50B4D04460022C8
:101E500002212846FEF707FB2146084800F040FA19
:101E6000FF21064800F03CFA0446012202212846E0
:101E7000FEF7F9FA204670BD000C01407400002006
:101E800010B5194C002201212046FEF7ECFA05227C
:101E90001649302000F060F814490522491D2A2017
:101EA00000F05AF80121212000F080F801212220C1
:101EB00000F07CF8FF21242000F078F8282125206C
:101EC00000F074F80F21262000F070F80E21202079
:101ED00000F06CF8012211462046FEF7C4FABDE876
:101EE00010400120FEF7B8B9000C0140922A00080A
:101EF00070B5174D0446002201212846FEF7B3FABB
:101F000020222146A02000F027F801221146284671
:101F1000FEF7A9FA0F4C10212046FEF79FFA002881
:101F2000F9D10720FFF790FF04460146272000F073
:101F30003DF8E00605D5FF21E12000F037F810203C
:101F400070BDA00601D5202070BDFF2070BD00002F
:101F5000000C0140000801402DE9F041DFF8448009
:101F600016460D460446002202214046FEF77BFA43
:101F700021460D4800F0B4F90746002407E000BFF1
:101F800015F8011B084800F0ABF9641CE4B2B44238
:101F9000F6D3012202214046FEF765FA3846BDE835
:101FA000F0810000000C01407400002070B50C4D61
:101FB0000E460446002202212846FEF754FA214626
:101FC000084800F08DF904463146064800F088F9CB
:101FD000012202212846FEF746FA204670BD000085
:101FE000000C01407400002070B500240021204640
:101FF00000F061F80025002000F0E8F86D1CEDB25B
:10200000802DF8D3641CE4B2082CEFD370BD10B55A
:10201000C820FEF721F9AE2000F0C6F8D52000F068
:10202000C3F8802000F0C0F8A82000F0BDF83F20E1
:1020300000F0BAF8D32000F0B7F8002000F0B4F8B0
:10204000402000F0B1F8A12000F0AEF8C82000F068
:10205000ABF8DA2000F0A8F8122000F0A5F88120F3
:1020600000F0A2F8CF2000F09FF8D92000F09CF8F3
:10207000F12000F099F8DB2000F096F8302000F015
:1020800093F8A42000F090F8A62000F08DF88D20A1
:1020900000F08AF8142000F087F8AF2000F084F8F0
:1020A000BDE81040FFF7A0BF0246012000E050430A
:1020B000491EFCD2704710B50C4640F0B00000F04D
:1020C00073F8102040EA141000F06EF804F00F00CE
:1020D000BDE8104000F068B82DE9F0410746CE0099
:1020E0004000083E801E15464FF0FF38F1B2C0B2E6
:1020F000FFF7E1FF1148002400EB05152819A0F5B2
:10210000805090F8000E00F061F8641CE4B2082CD6
:10211000F4D308EB4700F1B2C0B2FFF7CCFF0024C4
:102120002819A0F5805090F8080E00F04FF8641CB4
:10213000E4B2082CF4D3BDE8F08100009C2A00082A
:102140002DE9F04700241D461646884681460A2799
:1021500013E0291B0A20491EFFF7A6FFB6FBF0F08B
:10216000B0FBF7F107FB110208EB0400C1B24846CF
:102170003032FFF7B1FF641CE4B2AC42E9D3BDE8F2
:10218000F0872DE9F04115460E460746002406E08B
:102190003019C1B23846FFF79FFF641CE4B22A5DD4
:1021A000002AF5D1BDE8F08101B584B0012104A871
:1021B00064228DE807000B46002278210248FEF7D2
:1021C00021FA05B000BD00002000002001B584B058
:1021D000012104A864228DE807000B4640227821E3
:1021E0000248FEF70FFA05B000BD000020000020F5
:1021F0007047F8B515460E460B460092044601227C
:10220000022100F011F840B9334600228021204617
:10221000009500F009F8002804D0606D40F020001F
:1022200060650320F8BD00002DE9F8431E46914685
:1022300088460446089DFEF71BF9401B351AFEF739
:1022400017F9074625480068C0F3CB30684338E0EB
:10225000701C37D0FEF70CF9C01BA84203D215B191
:10226000009860B32CE02068416821F0E0014160F3
:102270006068B0F5827F0BD1A068B0F5004F02D046
:10228000B0F5806F04D12068016821F04001016041
:10229000A06AB0F5005F09D12068016821F40051FF
:1022A00001602068016841F400510160012084F858
:1022B0005100002084F850000320BDE8F883002579
:1022C000401E00902068816838EA010004D0002197
:1022D0004945BDD10020F0E70121F9E718000020B1
:1022E0003EB5FF248DF80810012301AA02A900942D
:1022F000FEF7EEFD08B18DF804409DF804003EBDE8
:102300007047FEF74FBA30B58FB028216846FDF709
:1023100012FF14210AA8FDF70EFF01210804CDE9E0
:1023200000100024029402250491CDE907504FF4D7
:10233000E01009906846FEF7A9FB08B172B6FEE707
:102340000F20CDE90A054FF48060CDE90C40022151
:102350000AA80E94FEF7BEFA002801D072B6FEE776
:102360000FB030BD704700000148FEF7DABF000033
:10237000CC000020F0B50268194B1A4C1A4D4FF0F2
:102380008047984205D0B84203D0A04201D0A8426D
:1023900003D122F070064A683243984205D0B84211
:1023A00003D0A04201D0A84203D122F44074CA68ED
:1023B00022434C6922F08002224302608A68C26292
:1023C0000A688262984201D1096901630121416171
:1023D0000169C90703D0016921F001010161F0BD64
:1023E000002C0140000400400008004010B5846843
:1023F00042EA032224F47F440A432243826010BD50
:10240000826822F070020A4342F00701816070473F
:1024100010B5036A046A24F001040462846924F09C
:10242000F00444EA021423F00A020A4384610262BF
:1024300010BD10B5036A046A24F0100404628469B4
:1024400023F0A00324F4704444EA023243EA011169
:102450008261016210BD10B5406A0021C185C1844E
:10246000FFF740F810BD01680C3151E8002F22F44D
:10247000907241E80023002BF5D10168143151E836
:10248000002F22F0010241E80023002BF5D1016B5F
:10249000012909D101680C3151E8002F22F0100206
:1024A00041E80023002BF5D1202180F842100021C3
:1024B0000163704708B590F84210222901D002202C
:1024C00008BD82684FF480539A4201D1016921B15D
:1024D000816A9A421BD04AB10AE00268816A526856
:1024E000C2F308020A80816A891C08E0026972B19D
:1024F0000268526802F07F020A70816A491C816298
:10250000C18D491E0904090CC18503D01BE0026876
:102510005268F1E70168CA6822F02002CA600168C7
:10252000CA6822F48072CA6001684A6922F0010216
:102530004A61202180F8421000214163026B012A88
:1025400003D0FFF779F9002008BD016301680C3161
:1025500051E8002F22F0100241E80023002BF5D1B2
:1025600001680A68D20602D50A6849680091818D1F
:10257000FEF7B7FFE7E7000070B5044600680169A1
:10258000E26821F44051114301612169A0680843C8
:10259000616908432168CA6841F20C639A430243A7
:1025A000CA6020684169A26921F440711143416108
:1025B0001E492068884202D1FEF732FA01E0FEF798
:1025C0001FFA00EBC00101EB00126068642180007B
:1025D000B2FBF0F3B3FBF1F36FF018067343B2FBF9
:1025E000F0F5B2FBF0F605EB8305322303EB05159E
:1025F000B5FBF1F5B6FBF1F605F0F00505EB0615B8
:10260000B2FBF0F6B2FBF0F0B0FBF1F06FF01802A5
:10261000504306EB800003EB0010B0FBF1F02168A3
:1026200000F00F002844886070BD000000380140B1
:102630002DE9F843984617460D460446089E24E0C7
:10264000701C22D0FDF714FFA0EB0800B0421AD88E
:10265000CEB12068C168490717D5802D15D0402D0F
:1026600013D00168C94309070FD4016800254068E9
:1026700000902046FFF7F7FE0820606484F8405081
:102680000120BDE8F8830320FBE72068006835EAF5
:10269000000004D00020B842D2D00020F1E7012091
:1026A000F9E700000148FEF71FBF000014010020F9
:1026B000FEE700000FB4054B10B503A9044A0298C9
:1026C00000F027F810BC5DF814FB0000E9270008B3
:1026D0001C0000200907090E002804DB00F1E0209F
:1026E00080F80014704700F00F0000F1E02080F83F
:1026F000141D704702E008C8121F08C1002AFAD151
:1027000070477047002001E001C1121F002AFBD171
:1027100070472DE9F84F99469246884605460027AE
:1027200006E025280AD051464A4690476D1C7F1C7A
:1027300028780028F5D13846BDE8F88F002315F831
:10274000011F18462E2915D115F8011F04232A2927
:102750000DD06FF02F022978A1F13004092C09D88F
:1027600000EB800002EB400008446D1CF3E758F8D2
:10277000040B6D1C2A78002ADDD0632A07D0732A47
:102780000FD0104651464A4690477F1C2AE018F861
:10279000042B8DF8002000218DF801106E460121D8
:1027A00003E058F8046B4FF0FF315A074FF0000474
:1027B00001D409E0641C84420BDA8C42FADB325DFE
:1027C000002AF7D105E0641C8C42FCDB305D002858
:1027D000F9D1274404E016F8010B51464A469047C8
:1027E000641EF8D26D1CA3E713B54FF0FF3301222E
:1027F00069460248FFF721F800981CBD140100202B
:1028000008B5FDF7D7FFFFF77EFDFFF7D1F9FFF71A
:1028100059FAFFF7AFFAFFF735FAFFF777FAFFF744
:10282000F6FBFFF7E1FB50A20F210420FFF7A9FC04
:102830004E48FEF7DBFC4FF47A7405E04CA0FFF73E
:1028400039FF2046FDF708FDFFF7B2FA0028F5D161
:1028500052A0FFF72FFFFFF713FB58A0FFF72AFF47
:10286000604C614D0026A878012819D15FA0012194
:102870000068009020685EA2401C20600846FFF7B8
:1028800080FC02230B2101202268FFF759FC6846D7
:10289000FFF72EFB202807D058A0FFF70BFFAE70E4
:1028A000687901280DD026E069465CA0FFF702FF99
:1028B00063A0FFF7FFFE6A4602210820FFF761FCD4
:1028C000EDE761A061A20068009060680121401CF2
:1028D00060600220FFF755FC02230B211846626856
:1028E000FFF72EFC6846FFF703FB202821D043A00A
:1028F000FFF7E0FE6E71287A0128B4D1A06856A2D5
:10290000401CA06001210320FFF73BFC02230B21A8
:102910000320A268FFF714FC52A0006800906846EC
:10292000FFF7E6FA202811D034A0FFF7C3FE2E727D
:1029300099E7694639A0FFF7BDFE41A0FFF7BAFE4F
:102940006A4602210820FFF71CFCD3E7694633A042
:10295000FFF7B0FE3AA0FFF7ADFE6A46022108205D
:10296000FFF70FFCE3E700004F4B0000CC00002016
:10297000BCECB2E2B2BBB5BD4E524632344C303143
:10298000CEDECFDFC4A3BFE9A3ACC7EBBCECB2E99A
:10299000D3B2BCFEC1ACBDD30D0A00004E524632CC
:1029A000344C3031CEDECFDFC4A3BFE9D3B2BCFE9E
:1029B000C1ACBDD3D5FDB3A30D0A0000BDF8C8EB73
:1029C000CAFDBEDDB7A2CBCDC4A3CABDA3ACC3BFF5
:1029D0003173B7A2CBCDD2BBB4CECAFDBEDD0D0ADA
:1029E00000000000000000205C0100203100000019
:1029F0006B6579315F6E756D3A0000004E5246325C
:102A0000344C3031CEDECFDFC4A3BFE9CAFDBEDD1A
:102A1000B7A2CBCDCAA7B0DC0D0A00004E52463299
:102A2000344C3031CEDECFDFC4A3BFE9CAFDBEDDFA
:102A3000B7A2CBCDB3C9B9A6A3BA25730D0A0000BE
:102A40004F4B0D0A00000000320000006B65793228
:102A50005F6E756D3A0000006B6579335F6E756D62
:102A60003A000000330000000102020304050607DB
:102A700008090A0B0C0D0E0F1010000000000000DA
:102A8000000001020304060708090000000001021B
:102A900003043443101001344310100100000000FF
:102AA000000000000000000000000000000000F82E
:102AB00000000000000000333000000000100C0691
:102AC000100C0600000000000000000040C078402C
:102AD000C0784000043F04043F040400007088FCF8
:102AE00008300000001820FF211E0000F008F00050
:102AF000E018000000211C031E211E0000F00888C1
:102B0000700000001E2123241927211010160E002A
:102B1000000000000000000000000000000000E0D5
:102B200018040200000000071820400000020418EA
:102B3000E00000000040201807000000404080F046
:102B4000804040000202010F01020200000000F07C
:102B5000000000000101011F010101000000000050
:102B60000000000080B070000000000000000000C5
:102B7000000000000001010101010101000000004E
:102B800000000000003030000000000000000000E5
:102B900080601804006018060100000000E01008C2
:102BA0000810E000000F102020100F00001010F897
:102BB000000000000020203F2020000000700808D6
:102BC0000888700000302824222130000030088856
:102BD000884830000018202020110E000000C0207E
:102BE00010F8000000070424243F240000F808889F
:102BF000880808000019212020110E0000E010882C
:102C000088180000000F112020110E00003808085D
:102C1000C83808000000003F00000000007088086D
:102C200008887000001C222121221C0000E01008EE
:102C30000810E0000000312222110F00000000C047
:102C4000C0000000000000303000000000000080E4
:102C500000000000000080600000000000008040D4
:102C600020100800000102040810200040404040ED
:102C70004040400004040404040404000008102040
:102C80004080000000201008040201000070480885
:102C90000808F0000000003036010000C030C828ED
:102CA000E810E0000718272423140B000000C038A8
:102CB000E0000000203C23020227382008F8888822
:102CC00088700000203F202020110E00C03008082E
:102CD00008083800071820202010080008F8080805
:102CE0000810E000203F202020100F0008F88888FE
:102CF000E8081000203F20202320180008F88888CA
:102D0000E8081000203F200003000000C030080841
:102D10000838000007182020221E020008F80800CA
:102D20000008F808203F210101213F20000808F891
:102D3000080800000020203F2020000000000808B4
:102D4000F8080800C08080807F00000008F888C074
:102D500028180800203F20012638200008F8080025
:102D600000000000203F20202020300008F8F8005C
:102D7000F8F80800203F003F003F200008F830C06E
:102D80000008F808203F200007183F00E01008085E
:102D90000810E0000F10202020100F0008F808088D
:102DA0000808F000203F210101010000E0100808A0
:102DB0000810E0000F18242438504F0008F88888C5
:102DC00088887000203F2000030C302000708808A5
:102DD000080838000038202121221C00180808F8B3
:102DE000080818000000203F2000000008F8080034
:102DF0000008F808001F202020201F000878880005
:102E000000C83808000007380E010000F80800F874
:102E10000008F800033C0700073C0300081868801E
:102E20008068180820302C03032C30200838C80094
:102E3000C83808000000203F2000000010080808E3
:102E4000C83808002038262120201800000000FE85
:102E5000020202000000007F40404000000C30C031
:102E600000000000000000010638C000000202025D
:102E7000FE000000004040407F000000000004020F
:102E8000020204000000000000000000000000003A
:102E9000000000008080808080808080000202042A
:102EA0000000000000000000000000000000808022
:102EB000808000000019242222223F2008F8008090
:102EC00080000000003F112020110E000000008053
:102ED00080800000000E11202020110000000080E2
:102EE0008088F800000E112020103F200000808014
:102EF00080800000001F222222221300008080F028
:102F0000888888180020203F202000000000808052
:102F100080808000006B94949493600008F8008097
:102F200080800000203F210000203F2000809898F2
:102F3000000000000020203F202000000000008052
:102F40009898000000C08080807F000008F8000092
:102F500080808000203F24022D302000000808F8E7
:102F6000000000000020203F2020000080808080A2
:102F700080808000203F20003F20003F8080008034
:102F800080800000203F210000203F200000808042
:102F900080800000001F202020201F0080800080F3
:102FA0008000000080FFA12020110E0000000080A2
:102FB00080808000000E112020A0FF808080800093
:102FC0008080800020203F212000010000008080C0
:102FD000808080000033242424241900008080E0B5
:102FE000808000000000001F202000008080000082
:102FF00000808000001F202020103F208080800063
:103000000080808000010E30080601008080008072
:10301000008080800F300C030C300F000080800097
:10302000808080000020312E0E31200080808000C2
:103030000080808080818E70180601000080808072
:10304000808080000021302C222130000000000010
:10305000807C020200000000003F404000000000B1
:10306000FF00000000000000FF0000000002027CE2
:10307000800000000040403F000000000006010109
:1030800002020404000000000000000020102CE7F1
:103090002424403C1010FF10101000000101017F9B
:1030A00021118041310D030D31418100404042CC5E
:1030B0000008E9AAB8A8A8AAE90800000040201F53
:1030C00020405F4A4A4A4A4A5F4040001060028CF2
:1030D0000008F94EC820584F48C8080004047E81F3
:1030E00040300F407F0044847F0404008080888843
:1030F000888888FF888888888880800000007C40D5
:103100004040407F40404040FC00000000FE022262
:10311000DA06000000FF00000000000000FF0810B9
:103120008847201807000718204080000828488991
:103130000E8878080800F80000FF00004020100901
:103140000619600000000F40807F0000008060F8DA
:1031500047404444447F444444444000010000FF4D
:1031600040404444447F444444444000807000FF55
:10317000102810FC0340207F8886E000806018073C
:10318000083004050404FF0404040400101014D4DF
:103190005454545F545454D414101000202010136D
:1031A000FA4622060A1222534884800000F000FFEB
:1031B00000F020104C4B4848C8480800001F100F72
:1031C000081F003048444241404070000000F84869
:1031D0004848C8484848FF0809CA080080601F825C
:1031E0008A5623528E4027182641F0000404040416
:1031F000F49495969494F4040404040000FE0202EE
:103200007A4A4A4A4A4A7A0282FE00008484FC844E
:1032100084405E505050DF5050505E0010301F0808
:103220000800FE02027F027E0282FE0000FE0222F1
:10323000DA0600FC0404040404FC000000FF08108B
:10324000080700FF4141414141FF0000000000002C
:10325000000000000000000000000000000000006E
:10326000000000000000000000000000000000005E
:10327000000000000000000000000000000000004E
:10328000000000000000000000000000000000003E
:10329000000000000000000000000000000000002E
:1032A000000000000000000000000000000000001E
:1032B000000000000000000000000000000000000E
:1032C00000000000000000000000000000000000FE
:1032D00000000000000000000000000000000000EE
:1032E00000000000000000000000000000000000DE
:1032F00000000000000000000000000000000000CE
:1033000000000000000000000000000000000000BD
:1033100000000000000000000000000000000000AD
:10332000000000000000000000000000000000009D
:10333000000000000000000000000000000000008D
:10334000000000000000000000000000000000007D
:103350000000000000808080C0C0800000000000ED
:1033600000000000000000000000000000C000009D
:10337000000000000000000000000000000000004D
:10338000000000000000000000000000000000003D
:10339000000000000000C0C00000000000000000AD
:1033A000000000000000000000000020C00000003D
:1033B000000000000000000000000000800000602D
:1033C000008060100000000000000000000000000D
:1033D0000020C00020311111D03E0C0888F02000E0
:1033E0000000000080800040584EC6624F25EC70FF
:1033F0002321202020000000000000000000040C19
:103400008CFC260606000000000000000000000002
:103410003030100BFE00F03F101A0C8080000000CE
:10342000000000000000002060E0F0BF9D0C0606D8
:10343000000000000000000000E000040704341257
:10344000D3B1D98145060000000000000000000053
:10345000000001060202020203030206030000004C
:10346000000000000000000000000905070303023F
:10347000040C080000000000000002060202020323
:103480000101010101010101030000000000000E23
:10349000060602030301010101010101010300000D
:1034A00000000000000808080403000001010103F7
:1034B000060C0800000000000000000000141310BB
:1034C00030100F07000000000000000000000000A6
:1034D00000000000000000000000000000000000EC
:1034E00000000000000000000000000000000000DC
:1034F00000000000000000000000000000000000CC
:1035000000000000000000000000000000000000BB
:1036E000F0000000000000000000000000000000EA
:1036F00000000000000000000000000000000000CA
:1037000000000000000000000000000000000000B9
:1037100000000000000000000000804040000000A9
:103720000000000000000000000000000000000099
:103730000000000000000000000000000000C000C9
:103740000000000000000000000000000000000079
:103750000000000000000000000000000000A008C1
:10376000020000040C0000C0000000000000000087
:103770000000000000000030E00000004040201089
:10378000080000000000008060180C040000000029
:10379000000040404020E07C13010000F058602011
:1037A00020000040C06020303020000080E07070B9
:1037B000300000000000E0B090988880E09BC000DE
:1037C00000808000804040C06000000000000000D9
:1037D000000000000000000000000000F00A80C0AF
:1037E00020300CC63E00001F10101010181F302093
:1037F000202060603010080402030304082040F811
:1038000000000000000000030202020203010000A9
:103810000000000080700F000000000301000000A5
:103820000000000001020202010101010003020286
:103830000202020202060703030302010101010161
:103840000100004020140300000000000000000000
:103850000000000000000000000000000101000066
:103860000000000100000000000000000000000057
:103870000000000000000000000000000000000048
:103880000000000000000000000000000000000038
:1038900000000F0601000000000000000000000012
:1038A0000000000000000000000000000000000018
:1038B000000000D800000000000080404020080008
:1038C00004000100000000000000000000000000F3
:1038D00000000000000000000000000000000000E8
:1038E00000000000000000000000000000000000D8
:1038F00000000000000000000000000000000000C8
:1039000000000000000000000000000000000000B7
:1039100000000000000000000000000000000000A7
:103920000000000000000000000000000000000097
:10393000000000030202020201010000000000007A
:103940000000000000000000000000000000000077
:103950000000000000000000000000000000000067
:103960000000000000000000000000000000000057
:103970000000000000000000000000000000000047
:103980000000000000000000000000000000000037
:103990000000000000000000000000000000000027
:1039A0000000000000000000000000000000000017
:1039B0000000000000000000000000000000000007
:1039C00000000000000000000000000000000000F7
:1039D00000000000000000000000000000000000E7
:1039E00000000000000000000000000000000000D7
:1039F00000000000000000000000000000000000C7
:103A000000000000000000000000000000000000B6
:103A100000000000000000000000000000000000A6
:103A20000000000000000000000000000000000096
:103A30000000000000000000000000000000000086
:103A40000000000000000000000000006C3A0008C8
:103A50000000002020000000F42600088C3A000836
:103A60002000002048050000042700080000000096
:103A70000000000000000000010000001000000035
:0C3A80000000000000127A0000000000AE
:04000005080000ED02
:00000001FF
